{
  "_format": "hh-sol-artifact-1",
  "contractName": "NumisferaAuction",
  "sourceName": "contracts/NumisferaAuction.sol",
  "abi": [
    {
      "inputs": [
        {
          "internalType": "address",
          "name": "_nftContract",
          "type": "address"
        }
      ],
      "stateMutability": "nonpayable",
      "type": "constructor"
    },
    {
      "inputs": [],
      "name": "AuctionAlreadyActive",
      "type": "error"
    },
    {
      "inputs": [],
      "name": "AuctionEndedError",
      "type": "error"
    },
    {
      "inputs": [],
      "name": "AuctionNotActive",
      "type": "error"
    },
    {
      "inputs": [],
      "name": "AuctionNotYetEnded",
      "type": "error"
    },
    {
      "inputs": [],
      "name": "BidTooLow",
      "type": "error"
    },
    {
      "inputs": [],
      "name": "NotTokenOwner",
      "type": "error"
    },
    {
      "inputs": [
        {
          "internalType": "address",
          "name": "owner",
          "type": "address"
        }
      ],
      "name": "OwnableInvalidOwner",
      "type": "error"
    },
    {
      "inputs": [
        {
          "internalType": "address",
          "name": "account",
          "type": "address"
        }
      ],
      "name": "OwnableUnauthorizedAccount",
      "type": "error"
    },
    {
      "inputs": [],
      "name": "ReentrancyGuardReentrantCall",
      "type": "error"
    },
    {
      "inputs": [],
      "name": "SellerCannotBid",
      "type": "error"
    },
    {
      "anonymous": false,
      "inputs": [
        {
          "indexed": true,
          "internalType": "uint256",
          "name": "tokenId",
          "type": "uint256"
        },
        {
          "indexed": true,
          "internalType": "address",
          "name": "seller",
          "type": "address"
        },
        {
          "indexed": false,
          "internalType": "uint256",
          "name": "startingPrice",
          "type": "uint256"
        },
        {
          "indexed": false,
          "internalType": "uint256",
          "name": "endingAt",
          "type": "uint256"
        }
      ],
      "name": "AuctionCreated",
      "type": "event"
    },
    {
      "anonymous": false,
      "inputs": [
        {
          "indexed": true,
          "internalType": "uint256",
          "name": "tokenId",
          "type": "uint256"
        },
        {
          "indexed": true,
          "internalType": "address",
          "name": "winner",
          "type": "address"
        },
        {
          "indexed": false,
          "internalType": "uint256",
          "name": "winningPrice",
          "type": "uint256"
        }
      ],
      "name": "AuctionEnded",
      "type": "event"
    },
    {
      "anonymous": false,
      "inputs": [
        {
          "indexed": true,
          "internalType": "uint256",
          "name": "tokenId",
          "type": "uint256"
        },
        {
          "indexed": true,
          "internalType": "address",
          "name": "bidder",
          "type": "address"
        },
        {
          "indexed": false,
          "internalType": "uint256",
          "name": "maxSetup",
          "type": "uint256"
        },
        {
          "indexed": false,
          "internalType": "uint256",
          "name": "newCurrentBid",
          "type": "uint256"
        }
      ],
      "name": "BidPlaced",
      "type": "event"
    },
    {
      "anonymous": false,
      "inputs": [
        {
          "indexed": true,
          "internalType": "address",
          "name": "previousOwner",
          "type": "address"
        },
        {
          "indexed": true,
          "internalType": "address",
          "name": "newOwner",
          "type": "address"
        }
      ],
      "name": "OwnershipTransferred",
      "type": "event"
    },
    {
      "inputs": [],
      "name": "COMMISSION_PERCENT",
      "outputs": [
        {
          "internalType": "uint256",
          "name": "",
          "type": "uint256"
        }
      ],
      "stateMutability": "view",
      "type": "function"
    },
    {
      "inputs": [
        {
          "internalType": "uint256",
          "name": "",
          "type": "uint256"
        }
      ],
      "name": "auctions",
      "outputs": [
        {
          "internalType": "address",
          "name": "seller",
          "type": "address"
        },
        {
          "internalType": "uint256",
          "name": "startingPrice",
          "type": "uint256"
        },
        {
          "internalType": "uint256",
          "name": "endingAt",
          "type": "uint256"
        },
        {
          "internalType": "address",
          "name": "highestBidder",
          "type": "address"
        },
        {
          "internalType": "uint256",
          "name": "currentBid",
          "type": "uint256"
        },
        {
          "internalType": "uint256",
          "name": "highestProxyBid",
          "type": "uint256"
        },
        {
          "internalType": "bool",
          "name": "active",
          "type": "bool"
        }
      ],
      "stateMutability": "view",
      "type": "function"
    },
    {
      "inputs": [
        {
          "internalType": "uint256",
          "name": "tokenId",
          "type": "uint256"
        }
      ],
      "name": "bid",
      "outputs": [],
      "stateMutability": "payable",
      "type": "function"
    },
    {
      "inputs": [
        {
          "internalType": "uint256",
          "name": "tokenId",
          "type": "uint256"
        },
        {
          "internalType": "uint256",
          "name": "startingPrice",
          "type": "uint256"
        },
        {
          "internalType": "uint256",
          "name": "duration",
          "type": "uint256"
        }
      ],
      "name": "createAuction",
      "outputs": [],
      "stateMutability": "nonpayable",
      "type": "function"
    },
    {
      "inputs": [],
      "name": "nftContract",
      "outputs": [
        {
          "internalType": "contract IERC721",
          "name": "",
          "type": "address"
        }
      ],
      "stateMutability": "view",
      "type": "function"
    },
    {
      "inputs": [],
      "name": "owner",
      "outputs": [
        {
          "internalType": "address",
          "name": "",
          "type": "address"
        }
      ],
      "stateMutability": "view",
      "type": "function"
    },
    {
      "inputs": [
        {
          "internalType": "address",
          "name": "",
          "type": "address"
        }
      ],
      "name": "pendingReturns",
      "outputs": [
        {
          "internalType": "uint256",
          "name": "",
          "type": "uint256"
        }
      ],
      "stateMutability": "view",
      "type": "function"
    },
    {
      "inputs": [],
      "name": "platformTreasury",
      "outputs": [
        {
          "internalType": "uint256",
          "name": "",
          "type": "uint256"
        }
      ],
      "stateMutability": "view",
      "type": "function"
    },
    {
      "inputs": [],
      "name": "renounceOwnership",
      "outputs": [],
      "stateMutability": "nonpayable",
      "type": "function"
    },
    {
      "inputs": [
        {
          "internalType": "uint256",
          "name": "tokenId",
          "type": "uint256"
        }
      ],
      "name": "settleAuction",
      "outputs": [],
      "stateMutability": "nonpayable",
      "type": "function"
    },
    {
      "inputs": [
        {
          "internalType": "address",
          "name": "newOwner",
          "type": "address"
        }
      ],
      "name": "transferOwnership",
      "outputs": [],
      "stateMutability": "nonpayable",
      "type": "function"
    },
    {
      "inputs": [],
      "name": "withdraw",
      "outputs": [],
      "stateMutability": "nonpayable",
      "type": "function"
    },
    {
      "inputs": [],
      "name": "withdrawTreasury",
      "outputs": [],
      "stateMutability": "nonpayable",
      "type": "function"
    }
  ],
  "bytecode": "0x608060405234801562000010575f80fd5b5060405162001e1538038062001e15833981810160405281019062000036919062000283565b336001620000596200004d6200012b60201b60201c565b6200015460201b60201c565b5f01819055505f73ffffffffffffffffffffffffffffffffffffffff168173ffffffffffffffffffffffffffffffffffffffff1603620000d2575f6040517f1e4fbdf7000000000000000000000000000000000000000000000000000000008152600401620000c99190620002c4565b60405180910390fd5b620000e3816200015d60201b60201c565b508060015f6101000a81548173ffffffffffffffffffffffffffffffffffffffff021916908373ffffffffffffffffffffffffffffffffffffffff16021790555050620002df565b5f7f9b779b17422d0df92223018b32b4d1fa46e071723d6817e2486d003becc55f005f1b905090565b5f819050919050565b5f805f9054906101000a900473ffffffffffffffffffffffffffffffffffffffff169050815f806101000a81548173ffffffffffffffffffffffffffffffffffffffff021916908373ffffffffffffffffffffffffffffffffffffffff1602179055508173ffffffffffffffffffffffffffffffffffffffff168173ffffffffffffffffffffffffffffffffffffffff167f8be0079c531659141344cd1fd0a4f28419497f9722a3daafe3b4186f6b6457e060405160405180910390a35050565b5f80fd5b5f73ffffffffffffffffffffffffffffffffffffffff82169050919050565b5f6200024d8262000222565b9050919050565b6200025f8162000241565b81146200026a575f80fd5b50565b5f815190506200027d8162000254565b92915050565b5f602082840312156200029b576200029a6200021e565b5b5f620002aa848285016200026d565b91505092915050565b620002be8162000241565b82525050565b5f602082019050620002d95f830184620002b3565b92915050565b611b2880620002ed5f395ff3fe6080604052600436106100c1575f3560e01c8063715018a61161007e578063cda4beef11610058578063cda4beef1461021d578063d56d229d14610245578063e138818c1461026f578063f2fde38b14610299576100c1565b8063715018a6146101b35780638da5cb5b146101c9578063b404e001146101f3576100c1565b8063166bab95146100c557806326b387bb146100db5780632e993611146101175780633ccfd60b1461013f578063454a2ab314610155578063571a26a014610171575b5f80fd5b3480156100d0575f80fd5b506100d96102c1565b005b3480156100e6575f80fd5b5061010160048036038101906100fc919061158f565b610399565b60405161010e91906115d2565b60405180910390f35b348015610122575f80fd5b5061013d60048036038101906101389190611615565b6103ae565b005b34801561014a575f80fd5b50610153610849565b005b61016f600480360381019061016a9190611615565b6109ca565b005b34801561017c575f80fd5b5061019760048036038101906101929190611615565b610e14565b6040516101aa9796959493929190611669565b60405180910390f35b3480156101be575f80fd5b506101c7610e9c565b005b3480156101d4575f80fd5b506101dd610eaf565b6040516101ea91906116d6565b60405180910390f35b3480156101fe575f80fd5b50610207610ed6565b60405161021491906115d2565b60405180910390f35b348015610228575f80fd5b50610243600480360381019061023e91906116ef565b610edb565b005b348015610250575f80fd5b50610259611268565b604051610266919061179a565b60405180910390f35b34801561027a575f80fd5b5061028361128d565b60405161029091906115d2565b60405180910390f35b3480156102a4575f80fd5b506102bf60048036038101906102ba919061158f565b611293565b005b6102c9611317565b6102d161139e565b5f60025490505f6002819055505f6102e7610eaf565b73ffffffffffffffffffffffffffffffffffffffff168260405161030a906117e0565b5f6040518083038185875af1925050503d805f8114610344576040519150601f19603f3d011682016040523d82523d5f602084013e610349565b606091505b505090508061038d576040517f08c379a00000000000000000000000000000000000000000000000000000000081526004016103849061184e565b60405180910390fd5b50506103976113c0565b565b6004602052805f5260405f205f915090505481565b6103b661139e565b5f60035f8381526020019081526020015f209050806006015f9054906101000a900460ff16610411576040517f69b8d0fe00000000000000000000000000000000000000000000000000000000815260040160405180910390fd5b806002015442101561044f576040517f44cee29000000000000000000000000000000000000000000000000000000000815260040160405180910390fd5b5f816006015f6101000a81548160ff0219169083151502179055505f73ffffffffffffffffffffffffffffffffffffffff16816003015f9054906101000a900473ffffffffffffffffffffffffffffffffffffffff1673ffffffffffffffffffffffffffffffffffffffff1614610740575f816004015490505f826005015490505f82826104dd9190611899565b90505f81111561055e578060045f866003015f9054906101000a900473ffffffffffffffffffffffffffffffffffffffff1673ffffffffffffffffffffffffffffffffffffffff1673ffffffffffffffffffffffffffffffffffffffff1681526020019081526020015f205f82825461055691906118cc565b925050819055505b5f6064600f8561056e91906118ff565b610578919061196d565b90505f81856105879190611899565b90508160025f82825461059a91906118cc565b925050819055508060045f885f015f9054906101000a900473ffffffffffffffffffffffffffffffffffffffff1673ffffffffffffffffffffffffffffffffffffffff1673ffffffffffffffffffffffffffffffffffffffff1681526020019081526020015f205f82825461060f91906118cc565b9250508190555060015f9054906101000a900473ffffffffffffffffffffffffffffffffffffffff1673ffffffffffffffffffffffffffffffffffffffff166323b872dd30886003015f9054906101000a900473ffffffffffffffffffffffffffffffffffffffff168a6040518463ffffffff1660e01b81526004016106979392919061199d565b5f604051808303815f87803b1580156106ae575f80fd5b505af11580156106c0573d5f803e3d5ffd5b50505050856003015f9054906101000a900473ffffffffffffffffffffffffffffffffffffffff1673ffffffffffffffffffffffffffffffffffffffff16877fd2aa34a4fdbbc6dff6a3e56f46e0f3ae2a31d7785ff3487aa5c95c642acea5018760405161072e91906115d2565b60405180910390a3505050505061083d565b60015f9054906101000a900473ffffffffffffffffffffffffffffffffffffffff1673ffffffffffffffffffffffffffffffffffffffff166323b872dd30835f015f9054906101000a900473ffffffffffffffffffffffffffffffffffffffff16856040518463ffffffff1660e01b81526004016107c09392919061199d565b5f604051808303815f87803b1580156107d7575f80fd5b505af11580156107e9573d5f803e3d5ffd5b505050505f73ffffffffffffffffffffffffffffffffffffffff16827fd2aa34a4fdbbc6dff6a3e56f46e0f3ae2a31d7785ff3487aa5c95c642acea5015f6040516108349190611a0b565b60405180910390a35b506108466113c0565b50565b61085161139e565b5f60045f3373ffffffffffffffffffffffffffffffffffffffff1673ffffffffffffffffffffffffffffffffffffffff1681526020019081526020015f205490505f81116108d4576040517f08c379a00000000000000000000000000000000000000000000000000000000081526004016108cb90611a6e565b60405180910390fd5b5f60045f3373ffffffffffffffffffffffffffffffffffffffff1673ffffffffffffffffffffffffffffffffffffffff1681526020019081526020015f20819055505f3373ffffffffffffffffffffffffffffffffffffffff168260405161093b906117e0565b5f6040518083038185875af1925050503d805f8114610975576040519150601f19603f3d011682016040523d82523d5f602084013e61097a565b606091505b50509050806109be576040517f08c379a00000000000000000000000000000000000000000000000000000000081526004016109b59061184e565b60405180910390fd5b50506109c86113c0565b565b6109d261139e565b5f60035f8381526020019081526020015f209050806006015f9054906101000a900460ff16610a2d576040517f69b8d0fe00000000000000000000000000000000000000000000000000000000815260040160405180910390fd5b80600201544210610a6a576040517f967574c100000000000000000000000000000000000000000000000000000000815260040160405180910390fd5b805f015f9054906101000a900473ffffffffffffffffffffffffffffffffffffffff1673ffffffffffffffffffffffffffffffffffffffff163373ffffffffffffffffffffffffffffffffffffffff1603610af1576040517fef02588900000000000000000000000000000000000000000000000000000000815260040160405180910390fd5b5f3490505f73ffffffffffffffffffffffffffffffffffffffff16826003015f9054906101000a900473ffffffffffffffffffffffffffffffffffffffff1673ffffffffffffffffffffffffffffffffffffffff1603610be6578160010154811015610b89576040517fa0d26eb600000000000000000000000000000000000000000000000000000000815260040160405180910390fd5b33826003015f6101000a81548173ffffffffffffffffffffffffffffffffffffffff021916908373ffffffffffffffffffffffffffffffffffffffff16021790555080826005018190555081600101548260040181905550610db2565b81600401548111610c23576040517fa0d26eb600000000000000000000000000000000000000000000000000000000815260040160405180910390fd5b8160050154811115610d2c575f826003015f9054906101000a900473ffffffffffffffffffffffffffffffffffffffff1690505f836005015490505f633b9aca0082610c6f91906118cc565b905083811115610c7d578390505b8160045f8573ffffffffffffffffffffffffffffffffffffffff1673ffffffffffffffffffffffffffffffffffffffff1681526020019081526020015f205f828254610cc991906118cc565b9250508190555033856003015f6101000a81548173ffffffffffffffffffffffffffffffffffffffff021916908373ffffffffffffffffffffffffffffffffffffffff160217905550838560050181905550808560040181905550505050610db1565b5f633b9aca0082610d3d91906118cc565b90508260050154811115610d5357826005015490505b8083600401819055508160045f3373ffffffffffffffffffffffffffffffffffffffff1673ffffffffffffffffffffffffffffffffffffffff1681526020019081526020015f205f828254610da891906118cc565b92505081905550505b5b3373ffffffffffffffffffffffffffffffffffffffff16837f51db8e23b3f4479b162fd48823b8402895442b8f6cfd94f66239391881ec7b6f838560040154604051610dff929190611a8c565b60405180910390a35050610e116113c0565b50565b6003602052805f5260405f205f91509050805f015f9054906101000a900473ffffffffffffffffffffffffffffffffffffffff1690806001015490806002015490806003015f9054906101000a900473ffffffffffffffffffffffffffffffffffffffff1690806004015490806005015490806006015f9054906101000a900460ff16905087565b610ea4611317565b610ead5f6113da565b565b5f805f9054906101000a900473ffffffffffffffffffffffffffffffffffffffff16905090565b600f81565b3373ffffffffffffffffffffffffffffffffffffffff1660015f9054906101000a900473ffffffffffffffffffffffffffffffffffffffff1673ffffffffffffffffffffffffffffffffffffffff16636352211e856040518263ffffffff1660e01b8152600401610f4c91906115d2565b602060405180830381865afa158015610f67573d5f803e3d5ffd5b505050506040513d601f19601f82011682018060405250810190610f8b9190611ac7565b73ffffffffffffffffffffffffffffffffffffffff1614610fd8576040517f59dc379f00000000000000000000000000000000000000000000000000000000815260040160405180910390fd5b60035f8481526020019081526020015f206006015f9054906101000a900460ff1615611030576040517f9cebe16a00000000000000000000000000000000000000000000000000000000815260040160405180910390fd5b60015f9054906101000a900473ffffffffffffffffffffffffffffffffffffffff1673ffffffffffffffffffffffffffffffffffffffff166323b872dd3330866040518463ffffffff1660e01b815260040161108e9392919061199d565b5f604051808303815f87803b1580156110a5575f80fd5b505af11580156110b7573d5f803e3d5ffd5b505050505f81426110c891906118cc565b90506040518060e001604052803373ffffffffffffffffffffffffffffffffffffffff1681526020018481526020018281526020015f73ffffffffffffffffffffffffffffffffffffffff1681526020015f81526020015f81526020016001151581525060035f8681526020019081526020015f205f820151815f015f6101000a81548173ffffffffffffffffffffffffffffffffffffffff021916908373ffffffffffffffffffffffffffffffffffffffff16021790555060208201518160010155604082015181600201556060820151816003015f6101000a81548173ffffffffffffffffffffffffffffffffffffffff021916908373ffffffffffffffffffffffffffffffffffffffff1602179055506080820151816004015560a0820151816005015560c0820151816006015f6101000a81548160ff0219169083151502179055509050503373ffffffffffffffffffffffffffffffffffffffff16847fc9050d42180a61cb0d9ebb8ad118b62fe6eab12cf12ff752c4a0cc7da9ddf627858460405161125a929190611a8c565b60405180910390a350505050565b60015f9054906101000a900473ffffffffffffffffffffffffffffffffffffffff1681565b60025481565b61129b611317565b5f73ffffffffffffffffffffffffffffffffffffffff168173ffffffffffffffffffffffffffffffffffffffff160361130b575f6040517f1e4fbdf700000000000000000000000000000000000000000000000000000000815260040161130291906116d6565b60405180910390fd5b611314816113da565b50565b61131f61149b565b73ffffffffffffffffffffffffffffffffffffffff1661133d610eaf565b73ffffffffffffffffffffffffffffffffffffffff161461139c5761136061149b565b6040517f118cdaa700000000000000000000000000000000000000000000000000000000815260040161139391906116d6565b60405180910390fd5b565b6113a66114a2565b60026113b86113b36114e3565b61150c565b5f0181905550565b60016113d26113cd6114e3565b61150c565b5f0181905550565b5f805f9054906101000a900473ffffffffffffffffffffffffffffffffffffffff169050815f806101000a81548173ffffffffffffffffffffffffffffffffffffffff021916908373ffffffffffffffffffffffffffffffffffffffff1602179055508173ffffffffffffffffffffffffffffffffffffffff168173ffffffffffffffffffffffffffffffffffffffff167f8be0079c531659141344cd1fd0a4f28419497f9722a3daafe3b4186f6b6457e060405160405180910390a35050565b5f33905090565b6114aa611515565b156114e1576040517f3ee5aeb500000000000000000000000000000000000000000000000000000000815260040160405180910390fd5b565b5f7f9b779b17422d0df92223018b32b4d1fa46e071723d6817e2486d003becc55f005f1b905090565b5f819050919050565b5f60026115286115236114e3565b61150c565b5f015414905090565b5f80fd5b5f73ffffffffffffffffffffffffffffffffffffffff82169050919050565b5f61155e82611535565b9050919050565b61156e81611554565b8114611578575f80fd5b50565b5f8135905061158981611565565b92915050565b5f602082840312156115a4576115a3611531565b5b5f6115b18482850161157b565b91505092915050565b5f819050919050565b6115cc816115ba565b82525050565b5f6020820190506115e55f8301846115c3565b92915050565b6115f4816115ba565b81146115fe575f80fd5b50565b5f8135905061160f816115eb565b92915050565b5f6020828403121561162a57611629611531565b5b5f61163784828501611601565b91505092915050565b61164981611554565b82525050565b5f8115159050919050565b6116638161164f565b82525050565b5f60e08201905061167c5f83018a611640565b61168960208301896115c3565b61169660408301886115c3565b6116a36060830187611640565b6116b060808301866115c3565b6116bd60a08301856115c3565b6116ca60c083018461165a565b98975050505050505050565b5f6020820190506116e95f830184611640565b92915050565b5f805f6060848603121561170657611705611531565b5b5f61171386828701611601565b935050602061172486828701611601565b925050604061173586828701611601565b9150509250925092565b5f819050919050565b5f61176261175d61175884611535565b61173f565b611535565b9050919050565b5f61177382611748565b9050919050565b5f61178482611769565b9050919050565b6117948161177a565b82525050565b5f6020820190506117ad5f83018461178b565b92915050565b5f81905092915050565b50565b5f6117cb5f836117b3565b91506117d6826117bd565b5f82019050919050565b5f6117ea826117c0565b9150819050919050565b5f82825260208201905092915050565b7f5472616e73666572206661696c656400000000000000000000000000000000005f82015250565b5f611838600f836117f4565b915061184382611804565b602082019050919050565b5f6020820190508181035f8301526118658161182c565b9050919050565b7f4e487b71000000000000000000000000000000000000000000000000000000005f52601160045260245ffd5b5f6118a3826115ba565b91506118ae836115ba565b92508282039050818111156118c6576118c561186c565b5b92915050565b5f6118d6826115ba565b91506118e1836115ba565b92508282019050808211156118f9576118f861186c565b5b92915050565b5f611909826115ba565b9150611914836115ba565b9250828202611922816115ba565b915082820484148315176119395761193861186c565b5b5092915050565b7f4e487b71000000000000000000000000000000000000000000000000000000005f52601260045260245ffd5b5f611977826115ba565b9150611982836115ba565b92508261199257611991611940565b5b828204905092915050565b5f6060820190506119b05f830186611640565b6119bd6020830185611640565b6119ca60408301846115c3565b949350505050565b5f819050919050565b5f6119f56119f06119eb846119d2565b61173f565b6115ba565b9050919050565b611a05816119db565b82525050565b5f602082019050611a1e5f8301846119fc565b92915050565b7f4e6f2066756e647320746f2077697468647261770000000000000000000000005f82015250565b5f611a586014836117f4565b9150611a6382611a24565b602082019050919050565b5f6020820190508181035f830152611a8581611a4c565b9050919050565b5f604082019050611a9f5f8301856115c3565b611aac60208301846115c3565b9392505050565b5f81519050611ac181611565565b92915050565b5f60208284031215611adc57611adb611531565b5b5f611ae984828501611ab3565b9150509291505056fea26469706673582212205e6fba84e1ef56c504aae56f0e3b18293fe5c3bf9e4699436562a0daaf0095e164736f6c63430008180033",
  "linkReferences": {},
  "deployedLinkReferences": {}
}